:100000000C9435000C945D000C945D000C945D0024
:100010000C945D000C945D000C945D000C945D00EC
:100020000C945D000C945D000C94DD000C945D005C
:100030000C945D000C946F000C945D000C945D00BA
:100040000C94B9040C945D000C9479020C94C702D2
:100050000C945D000C945D000C945D000C945D00AC
:100060000C945D000C945D002A0411241FBECFEF98
:10007000D4E0DEBFCDBF11E0A0E0B1E0E6ECFAE0F5
:1000800002C005900D92A831B107D9F711E0A8E19F
:10009000B1E001C01D92A03FB107E1F710E0CAE650
:1000A000D0E004C02297FE010E945D05C836D1074A
:1000B000C9F70E9480040C9461050C940000882309
:1000C00011F481E003C0873008F086E080930501D9
:1000D0000895882309F481E08093040108957894B9
:1000E0001F920F920FB60F9211248F9381E080938D
:1000F0003B0180913C018F5F80933C018F910F9079
:100100000FBE0F901F901895EAE7F0E080818F777F
:100110008083EBE7F0E080818064808384E480BFAB
:1001200010927C00B59883E280938000E1E8F0E0D3
:1001300089E9808380818F7B80838FEF9FEF90930D
:100140008900809388008FEF9FE790938B008093C6
:100150008A0081E280936F000895E0910201F0919E
:10016000030191E1DF011D929A95E9F710923C019C
:1001700022E030E03093070120930601282F2F5F03
:1001800080910501281708F020E026878091000162
:10019000909101019093030180930201F09301017A
:1001A000E093000181E080933A01809181008F7B90
:1001B0008093810020937C00089578941F920F9281
:1001C0000FB60F9211241F932F933F934F935F937A
:1001D0006F937F938F939F93AF93BF93CF93DF934F
:1001E000EF93FF932091860030918700C09100012A
:1001F000D091010180913B01882311F410E005C0EA
:1002000010923B0137FF68C012E08F8598898230D9
:10021000910551F18330910534F4009759F001971D
:1002200009F051C015C08330910521F1049709F000
:100230004AC02CC0809106019091070101979093CC
:10024000070180930601892BF1F581E090E039C028
:100250003F832E831A861B86809181008064809361
:10026000810082E090E02DC0398328831C821D86A6
:100270001C8620C0398728878B858A8780918100DA
:1002800080648093810084E090E01BC03B832A83DC
:100290008C859D8501969D878C879A858091040128
:1002A000981740F085E090E0988B8F878E850E94AC
:1002B000AD0009C0809181008F7B8093810083E035
:1002C00090E0988B8F87123079F48C818F5F8C83CC
:1002D0008B858F5F8B8708C08C818F5F8C838B852C
:1002E0008F5F8B8711E091CFFF91EF91DF91CF91DD
:1002F000BF91AF919F918F917F916F915F914F913E
:100300003F912F911F910F900FBE0F901F90189546
:10031000EF92FF920F931F9380913A018823D9F1B6
:1003200010923A01E0910201F09103018285E4808C
:10033000FF24E80EF11C0027F7FC0095102F870121
:10034000FF24EE242085318540E050E082819381B6
:10035000A0E0B0E0280F391F4A1F5B1F86819781FC
:10036000A0E0B0E0281B390B4A0B5B0B8081918128
:10037000A0E0B0E0281B390B4A0B5B0B6485758548
:10038000660F771F2E0D3F1D401F511F86850E944F
:10039000440281E015C02091040130E080913C01CD
:1003A00090E0281739075CF410923C0110923B0151
:1003B000E0910001F091010186850E94AD0080E08E
:1003C0001F910F91FF90EF90089585EC91E040E030
:1003D00051EE60E070E00E9402030E94840088E019
:1003E0000E94690082E00E945F000895EF92FF92F0
:1003F0000F931F938C0195ECE92E91E0F92EB80133
:100400006F777070C7010E94EA03000F012F001F71
:10041000110B11950F771070C701602F0E94EA032E
:100420001F910F91FF90EF900895EF92FF920F931D
:100430001F93CF93DF93EB0179018A018F3FC1F0C6
:10044000682F70E06F77707085EC91E00E94EA038E
:10045000CE010E94F601C7010E94F6012EE016951A
:100460000795F794E7942A95D1F7C7010E94F60102
:1004700085EC91E060E80E94EA03DF91CF911F9143
:100480000F91FF90EF9008950E94150208950F9329
:100490001F930E948801882359F0823049F48FEF1E
:1004A00060E070E020E030E040E050E00E941502A3
:1004B00085EC91E00E9480030397BCF085EC91E00D
:1004C0000E94B1038F3F910581F485EC91E00E9479
:1004D000B103082F85EC91E00E94B103182F802F03
:1004E0000E946900812F0E945F001F910F91089563
:1004F00008951F920F920FB60F9211242F933F93DE
:100500004F938F939F93EF93FF938091C00082FD51
:100510001DC04091C60020917D0130917E012F5F6A
:100520003F4F2F73307080917F0190918001281789
:10053000390771F0E0917D01F0917E01E35CFE4F9F
:10054000408330937E0120937D0102C08091C600DC
:10055000FF91EF919F918F914F913F912F910F902C
:100560000FBE0F901F901895E091D101F091D2012C
:10057000E05CFF4F8191919120813181821B930B2F
:100580008F739070892B11F00E94780208951F924A
:100590000F920FB60F9211242F933F938F939F9337
:1005A000EF93FF932091C1013091C2018091C3016B
:1005B0009091C4012817390731F48091C1008F7DD3
:1005C0008093C10014C0E091C301F091C401EF57C2
:1005D000FE4F20818091C3019091C40101968F73D9
:1005E00090709093C4018093C3012093C600FF9143
:1005F000EF919F918F913F912F910F900FBE0F9090
:100600001F901895AF92BF92DF92EF92FF920F93D7
:100610001F93CF93DF93EC017A018B01DD24D394F8
:1006200091E0A92EB12CEC89FD89DD2069F0C5018E
:1006300008A002C0880F991F0A94E2F7808360E443
:100640007BE48CE490E005C0108260EA75E286E20B
:1006500090E0A80197010E943905215030404040A8
:100660005040569547953795279580E120303807BB
:1006700020F0DD2011F0DD24D6CFE889F989308320
:10068000EA89FB89208319A2EE89FF89408121E054
:1006900030E0C9010C8C02C0880F991F0A94E2F760
:1006A000482B4083EE89FF894081C9010D8C02C02F
:1006B000880F991F0A94E2F7482B4083EE89FF893F
:1006C0004081C9010E8C02C0880F991F0A94E2F77D
:1006D000482B4083EE89FF8980810F8C02C0220F56
:1006E000331F0A94E2F7209528232083DF91CF91CE
:1006F0001F910F91FF90EF90DF90BF90AF90089502
:10070000DC011C96ED91FC911D97E05CFF4F21915F
:10071000319180819181281B390B2F733070C90171
:100720000895DC011C96ED91FC911D97E05CFF4F54
:1007300020813181E054F040DF01AE5BBF4F8D91ED
:100740009C9111972817390719F42FEF3FEF07C035
:100750008D919C91E80FF91F8081282F30E0C9010D
:100760000895DC011C96ED91FC911D97E05CFF4F14
:1007700020813181E054F040DF01AE5BBF4F8D91AD
:100780009C9111972817390719F42FEF3FEF10C0EC
:100790008D919C911197E80FF91F20818D919C916B
:1007A000119701968F73907011969C938E9330E001
:1007B000C9010895DC0191968C919197882339F0B5
:1007C0005496ED91FC915597808186FFF9CF9196D3
:1007D0001C920895CF93DF93EC01EE85FF85E05CDA
:1007E000FF4F20813181E054F0402F5F3F4F2F7346
:1007F0003070DF01AE5BBF4F8D919C911197281730
:100800003907D1F3E05CFF4F80819181E054F040E3
:10081000E80FF91F6083EE85FF85E05CFF4F3183B1
:100820002083EE89FF89208181E090E00F8C02C057
:10083000880F991F0A94E2F7282B208381E089A36F
:10084000EC89FD8980818064808381E090E0DF9184
:10085000CF9108951092C8011092C70188EE93E0DD
:10086000A0E0B0E08093C9019093CA01A093CB01AE
:10087000B093CC018CE091E09093C6018093C501C8
:100880008DE391E09093D2018093D10181E891E0D2
:100890009093D4018093D30185EC90E09093D6019E
:1008A0008093D50184EC90E09093D8018093D70198
:1008B00080EC90E09093DA018093D90181EC90E094
:1008C0009093DC018093DB0182EC90E09093DE0159
:1008D0008093DD0186EC90E09093E0018093DF014E
:1008E00084E08093E10183E08093E20187E08093DC
:1008F000E30185E08093E40181E08093E5010895C0
:10090000CF93DF930E94FE040E94E501C4EBD2E086
:100910000E9447022097E1F30E94B402F9CFCF92E0
:10092000DF92EF92FF920F931F93CF93DF937C019F
:100930006B018A01C0E0D0E00FC0D6016D916D015E
:10094000D701ED91FC910190F081E02DC70109954F
:10095000C80FD91F015010400115110571F7CE01C4
:10096000DF91CF911F910F91FF90EF90DF90CF908B
:1009700008951F920F920FB60F9211242F933F9359
:100980008F939F93AF93BF938091EB019091EC0174
:10099000A091ED01B091EE013091EF01232F2A5982
:1009A0002D3720F02D570196A11DB11D2093EF0189
:1009B0008093EB019093EC01A093ED01B093EE01D5
:1009C0008091E7019091E801A091E901B091EA01DD
:1009D0000196A11DB11D8093E7019093E801A093BA
:1009E000E901B093EA01BF91AF919F918F913F913F
:1009F0002F910F900FBE0F901F901895789484B58B
:100A0000826084BD84B5816084BD85B5826085BD0A
:100A100085B5816085BDEEE6F0E0808181608083F0
:100A2000E1E8F0E0108280818260808380818160D3
:100A30008083E0E8F0E0808181608083E1EBF0E09A
:100A4000808184608083E0EBF0E08081816080833E
:100A5000EAE7F0E080818460808380818260808327
:100A60008081816080838081806880831092C10052
:100A70000895A1E21A2EAA1BBB1BFD010DC0AA1FDF
:100A8000BB1FEE1FFF1FA217B307E407F50720F0F7
:100A9000A21BB30BE40BF50B661F771F881F991F72
:100AA0001A9469F760957095809590959B01AC01BB
:100AB000BD01CF010895EE0FFF1F0590F491E02DC9
:060AC0000994F894FFCF39
:100AC600180129010401020000000000EA038F0456
:080AD6008003B1039103DA0370
:00000001FF
