:100000000C9435000C945D000C945D000C945D0024
:100010000C945D000C945D000C945D000C945D00EC
:100020000C945D000C945D000C945E010C945D00DA
:100030000C945D000C94F0000C945D000C945D0039
:100040000C94D7040C945D000C9466020C945D0033
:100050000C945D000C945D000C945D000C945D00AC
:100060000C945D000C945D005B0311241FBECFEF68
:10007000D4E0DEBFCDBF11E0A0E0B1E0EAE8FBE0F4
:1000800002C005900D92A431B107D9F711E0A4E1A7
:10009000B1E001C01D92A83DB107E1F710E0CAE64A
:1000A000D0E004C02297FE010E94BF05C836D107E8
:1000B000C9F70E94D9000C94C3050C940000EF927C
:1000C000FF920F931F93CF93DF93E82FEB017901FA
:1000D0008A018F3F39F48DEB91E060E071E00E947E
:1000E000F0031BC08DEB91E06E2F70E00E94CF04F7
:1000F0008DEB91E060E20E94C9038DEB91E0BE01BF
:100100000E94A2048DEB91E060E20E94C9038DEB96
:1001100091E0B801A7010E949704DF91CF911F9150
:100120000F91FF90EF9008950F931F930E94090283
:10013000882359F0823049F48FEF60E070E020E0CE
:1001400030E040E050E00E945F008DEB91E00E94C3
:100150000C038330B8F08DEB91E00E9420038F3FB9
:10016000910581F48DEB91E00E942003082F8DEB27
:1001700091E00E942003182F802F0E94EA00812F17
:100180000E94E0001F910F9108950E945F00089562
:100190008DEB91E040E051EE60E070E00E94A30240
:1001A0000E94050188E00E94EA0081E00E94E000D0
:1001B00008950E941F050E94C8000E949400FDCF70
:1001C000882311F481E003C0853008F084E0809337
:1001D00006010895882309F481E0809305010895BC
:1001E00078941F920F920FB60F9211248F9381E093
:1001F00080933701809138018F5F809338018F9110
:100200000F900FBE0F901F901895EAE7F0E08081E5
:100210008F778083EBE7F0E080818064808384E4E3
:1002200080BF10927C00B59883E280938000E1E863
:10023000F0E089E9808380818F7B80838FEF9FEF5F
:1002400090938900809388008FEF9FE790938B00B5
:1002500080938A0081E280936F000895E09103010A
:10026000F091040191E1DF011D929A95E9F7109256
:10027000380122E030E03093080120930701282F55
:100280002F5F80910601281708F020E026878091D3
:100290000101909102019093040180930301F09376
:1002A0000201E093010181E0809336018091810099
:1002B0008F7B8093810020937C00089578941F9217
:1002C0000F920FB60F9211241F932F933F934F93CA
:1002D0005F936F937F938F939F93AF93BF93CF93CE
:1002E000DF93EF93FF932091860030918700C091B8
:1002F0000101D091020180913701882311F410E0AF
:1003000005C01092370137FF68C012E08F859889C9
:100310008230910551F18330910534F4009759F002
:10032000019709F051C015C08330910521F1049760
:1003300009F04AC02CC080910701909108010197F3
:100340009093080180930701892BF1F581E090E0FB
:1003500039C03F832E831A861B868091810080647A
:100360008093810082E090E02DC0398328831C8235
:100370001D861C8620C0398728878B858A878091B7
:10038000810080648093810084E090E01BC03B8307
:100390002A838C859D8501969D878C879A8580917F
:1003A0000501981740F085E090E0988B8F878E8547
:1003B0000E942E0109C0809181008F7B8093810073
:1003C00083E090E0988B8F87123079F48C818F5F77
:1003D0008C838B858F5F8B8708C08C818F5F8C832C
:1003E0008B858F5F8B8711E091CFFF91EF91DF912C
:1003F000CF91BF91AF919F918F917F916F915F91BD
:100400004F913F912F911F910F900FBE0F901F9012
:100410001895EF92FF920F931F93809136018823D6
:10042000D9F110923601E0910301F0910401828527
:10043000E480FF24E80EF11C0027F7FC0095102F44
:100440008701FF24EE242085318540E050E0828141
:100450009381A0E0B0E0280F391F4A1F5B1F8681FF
:100460009781A0E0B0E0281B390B4A0B5B0B808121
:100470009181A0E0B0E0281B390B4A0B5B0B64852F
:100480007585660F771F2E0D3F1D401F511F8685F6
:100490000E94C50081E015C02091050130E08091E7
:1004A000380190E0281739075CF410923801109257
:1004B0003701E0910101F091020186850E942E0131
:1004C00080E01F910F91FF90EF9008951F920F927F
:1004D0000FB60F9211242F933F934F935F936F9317
:1004E0007F938F939F93AF93BF93EF93FF9340912D
:1004F000C600E091B901F091BA01CF01019660E820
:1005000070E00E9459059C018091BB019091BC0153
:100510002817390739F0E75CFE4F40833093BA0162
:100520002093B901FF91EF91BF91AF919F918F916E
:100530007F916F915F914F913F912F910F900FBEDF
:100540000F901F901895AF92BF92CF92DF92EF92CB
:10055000FF920F931F93CF93DF936C017A018B016E
:10056000DC011496AD90BC901597CB01BA0122E046
:1005700030E040E050E00E948E05205C3D4B404F53
:100580005F4FCA01B901A80197010E948E05C901F8
:10059000DA010197A109B109292F3A2F4B2F5527CD
:1005A00047FD5A950196A11DB11DE5012883E6017D
:1005B000EE81FF8181508083EA85FB85208141E0C7
:1005C00050E0CA010E8402C0880F991F0A94E2F716
:1005D000282B2083EA85FB852081CA010F8402C075
:1005E000880F991F0A94E2F7282B2083EA85FB8560
:1005F0008081088802C0440F551F0A94E2F7842BBB
:100600008083DF91CF911F910F91FF90EF90DF904A
:10061000CF90BF90AF900895DC011296ED91FC91C0
:100620001397E058FF4F8191919180589F4F2081FF
:100630003181821B930B60E870E00E945905089598
:10064000CF93DF93DC011296ED91FC911397EF01AC
:10065000CE57DF4F48815981E058FF4F808191810B
:10066000E058F0408417950719F42FEF3FEF0CC0C6
:10067000E40FF51F2081CA01019660E870E00E9436
:1006800059059983888330E0C901DF91CF9108959E
:10069000FC01A085B18521898C9190E0022E02C0D9
:1006A000959587950A94E2F780FFF6CF0484F58547
:1006B000E02D608308958DE091E09093BE018093DA
:1006C000BD0189E391E09093C0018093BF0185EC67
:1006D00090E09093C2018093C10184EC90E09093EC
:1006E000C4018093C30180EC90E09093C601809395
:1006F000C50181EC90E09093C8018093C70186EC1E
:1007000090E09093CA018093C90184E08093CB016B
:1007100083E08093CC0187E08093CD0185E08093D6
:10072000CE0108950F931F93CF93DF938C01EB01BC
:1007300009C02196D801ED91FC910190F081E02D46
:10074000C801099568816623A1F7DF91CF911F91B8
:100750000F910895EF92FF920F931F93CF93DF9322
:100760008C017B01EA010CC0D7016D917D01D8019C
:10077000ED91FC910190F081E02DC8010995219740
:10078000209791F7DF91CF911F910F91FF90EF90FC
:100790000895DC01ED91FC910190F081E02D099527
:1007A0000895DC01ED91FC910280F381E02D099523
:1007B00008950F931F938C01DC01ED91FC91019042
:1007C000F081E02D6DE00995D801ED91FC9101904B
:1007D000F081E02DC8016AE009951F910F910895FD
:1007E0000F931F938C010E94D103C8010E94D9036B
:1007F0001F910F9108952F923F924F925F926F92A7
:100800007F928F929F92AF92BF92CF92DF92EF92A0
:10081000FF920F931F93DF93CF93CDB7DEB7A097CF
:100820000FB6F894DEBF0FBECDBF1C016A017B017D
:10083000411551056105710549F4DC01ED91FC910B
:100840000190F081E02D60E3099554C0882499243B
:100850005401422E55246624772401E010E00C0F49
:100860001D1F080D191DC701B601A30192010E94A9
:100870006C05F80160830894811C911CA11CB11CBB
:10088000C701B601A30192010E946C05C901DA01FA
:100890006C017D01C114D104E104F104F1F681E0A1
:1008A000E82EF12CEC0EFD1EE80CF91C3E0108941C
:1008B000611C711CD501C4010197A109B1096C012A
:1008C000C818D90814C0F601EE0DFF1D60816A300A
:1008D00010F4605D01C0695CD101ED91FC91019063
:1008E000F081E02DC10109950894E108F1086E142A
:1008F0007F0449F7A0960FB6F894DEBF0FBECDBFB8
:10090000CF91DF911F910F91FF90EF90DF90CF90EB
:10091000BF90AF909F908F907F906F905F904F901F
:100920003F902F9008952AE00E94FB0308950F93B3
:100930001F938C010E949304C8010E94D9031F9148
:100940000F910895AB0160E070E00E949304089558
:10095000EF92FF920F931F93CF93DF93EC017A01F5
:100960008B0177FF0FC0E881F9810190F081E02DC4
:100970006DE2099510950095F094E094E11CF11C4E
:10098000011D111DCE01B801A7012AE00E94FB0341
:10099000DF91CF911F910F91FF90EF900895AB01E0
:1009A000662757FD6095762F0E94A80408951F9230
:1009B0000F920FB60F9211242F933F938F939F9313
:1009C000AF93BF938091D3019091D401A091D501B1
:1009D000B091D6013091D7010196A11DB11D232FF1
:1009E0002D5F2D3720F02D570196A11DB11D2093AD
:1009F000D7018093D3019093D401A093D501B093F4
:100A0000D6018091CF019091D001A091D101B091F8
:100A1000D2010196A11DB11D8093CF019093D00109
:100A2000A093D101B093D201BF91AF919F918F91CB
:100A30003F912F910F900FBE0F901F9018957894B3
:100A400084B5826084BD84B5816084BD85B58260D3
:100A500085BD85B5816085BDEEE6F0E08081816071
:100A60008083E1E8F0E08081826080838081816022
:100A70008083E0E8F0E0808181608083E1EBF0E05A
:100A8000808184608083E0EBF0E0808181608083FE
:100A9000EAE7F0E0808184608083808182608083E7
:100AA0008081816080838081806880831092C10012
:100AB000089597FB092E07260AD077FD04D049D068
:100AC00006D000201AF4709561957F4F0895F6F7CF
:100AD000909581959F4F0895A1E21A2EAA1BBB1BEA
:100AE000FD010DC0AA1FBB1FEE1FFF1FA217B307FA
:100AF000E407F50720F0A21BB30BE40BF50B661F10
:100B0000771F881F991F1A9469F7609570958095D3
:100B100090959B01AC01BD01CF01089597FB092E73
:100B200005260ED057FD04D0D7DF0AD0001C38F4BC
:100B300050954095309521953F4F4F4F5F4F089509
:100B4000F6F790958095709561957F4F8F4F9F4FE9
:100B50000895AA1BBB1B51E107C0AA1FBB1FA61704
:100B6000B70710F0A61BB70B881F991F5A95A9F756
:100B700080959095BC01CD010895EE0FFF1F059063
:0A0B8000F491E02D0994F894FFCFE2
:100B8A00001401250104010200000000004803923C
:040B9A0003AA0300A7
:00000001FF
